{
  "contractName": "KBMarket",
  "abi": [
    {
      "inputs": [],
      "stateMutability": "nonpayable",
      "type": "constructor"
    },
    {
      "anonymous": false,
      "inputs": [
        {
          "indexed": true,
          "internalType": "uint256",
          "name": "ItemId",
          "type": "uint256"
        },
        {
          "indexed": true,
          "internalType": "address",
          "name": "nftContract",
          "type": "address"
        },
        {
          "indexed": false,
          "internalType": "uint256",
          "name": "tokenId",
          "type": "uint256"
        },
        {
          "indexed": false,
          "internalType": "address",
          "name": "owner",
          "type": "address"
        },
        {
          "indexed": false,
          "internalType": "address",
          "name": "seller",
          "type": "address"
        },
        {
          "indexed": false,
          "internalType": "uint256",
          "name": "price",
          "type": "uint256"
        },
        {
          "indexed": false,
          "internalType": "bool",
          "name": "sold",
          "type": "bool"
        }
      ],
      "name": "MarketTokenMinted",
      "type": "event"
    },
    {
      "inputs": [],
      "name": "getListingPrice",
      "outputs": [
        {
          "internalType": "uint256",
          "name": "",
          "type": "uint256"
        }
      ],
      "stateMutability": "view",
      "type": "function",
      "constant": true
    },
    {
      "inputs": [
        {
          "internalType": "address",
          "name": "nftContract",
          "type": "address"
        },
        {
          "internalType": "uint256",
          "name": "price",
          "type": "uint256"
        },
        {
          "internalType": "uint256",
          "name": "tokenId",
          "type": "uint256"
        }
      ],
      "name": "mintMarketItem",
      "outputs": [],
      "stateMutability": "payable",
      "type": "function",
      "payable": true
    },
    {
      "inputs": [
        {
          "internalType": "address",
          "name": "nftContract",
          "type": "address"
        },
        {
          "internalType": "uint256",
          "name": "itemId",
          "type": "uint256"
        }
      ],
      "name": "createMarketSale",
      "outputs": [],
      "stateMutability": "payable",
      "type": "function",
      "payable": true
    },
    {
      "inputs": [],
      "name": "fetchMarketToken",
      "outputs": [
        {
          "components": [
            {
              "internalType": "uint256",
              "name": "itemId",
              "type": "uint256"
            },
            {
              "internalType": "address",
              "name": "nftContract",
              "type": "address"
            },
            {
              "internalType": "uint256",
              "name": "tokenId",
              "type": "uint256"
            },
            {
              "internalType": "address payable",
              "name": "seller",
              "type": "address"
            },
            {
              "internalType": "address payable",
              "name": "owner",
              "type": "address"
            },
            {
              "internalType": "uint256",
              "name": "price",
              "type": "uint256"
            },
            {
              "internalType": "bool",
              "name": "sold",
              "type": "bool"
            }
          ],
          "internalType": "struct KBMarket.MarketToken[]",
          "name": "",
          "type": "tuple[]"
        }
      ],
      "stateMutability": "view",
      "type": "function",
      "constant": true
    }
  ],
  "bytecode": "0x6080604052669fdf42f6e4800060045534801561001b57600080fd5b50600160008190555033600360006101000a81548173ffffffffffffffffffffffffffffffffffffffff021916908373ffffffffffffffffffffffffffffffffffffffff1602179055506111c2806100746000396000f3fe60806040526004361061003f5760003560e01c806312e85585146100445780633f7e0a381461006f5780635538f1941461009a578063c23b139e146100b6575b600080fd5b34801561005057600080fd5b506100596100d2565b6040516100669190610a81565b60405180910390f35b34801561007b57600080fd5b506100846100dc565b6040516100919190610c65565b60405180910390f35b6100b460048036038101906100af9190610ce4565b6103a5565b005b6100d060048036038101906100cb9190610d37565b61070a565b005b6000600454905090565b606060006100ea60016109c3565b905060006100f860026109c3565b61010260016109c3565b61010c9190610da6565b90506000808267ffffffffffffffff81111561012b5761012a610dda565b5b60405190808252806020026020018201604052801561016457816020015b6101516109e7565b8152602001906001900390816101495790505b50905060005b8481101561039a57600073ffffffffffffffffffffffffffffffffffffffff166005600060018461019b9190610e09565b815260200190815260200160002060040160009054906101000a900473ffffffffffffffffffffffffffffffffffffffff1673ffffffffffffffffffffffffffffffffffffffff1614156103875760006001826101f89190610e09565b90506000600560008381526020019081526020016000209050806040518060e0016040529081600082015481526020016001820160009054906101000a900473ffffffffffffffffffffffffffffffffffffffff1673ffffffffffffffffffffffffffffffffffffffff1673ffffffffffffffffffffffffffffffffffffffff168152602001600282015481526020016003820160009054906101000a900473ffffffffffffffffffffffffffffffffffffffff1673ffffffffffffffffffffffffffffffffffffffff1673ffffffffffffffffffffffffffffffffffffffff1681526020016004820160009054906101000a900473ffffffffffffffffffffffffffffffffffffffff1673ffffffffffffffffffffffffffffffffffffffff1673ffffffffffffffffffffffffffffffffffffffff168152602001600582015481526020016006820160009054906101000a900460ff16151515158152505084868151811061036b5761036a610e5f565b5b6020026020010181905250848061038190610e8e565b95505050505b808061039290610e8e565b91505061016a565b508094505050505090565b600260005414156103eb576040517f08c379a00000000000000000000000000000000000000000000000000000000081526004016103e290610f34565b60405180910390fd5b600260008190555060008211610436576040517f08c379a000000000000000000000000000000000000000000000000000000000815260040161042d90610fa0565b60405180910390fd5b600454341461047a576040517f08c379a000000000000000000000000000000000000000000000000000000000815260040161047190611032565b60405180910390fd5b61048460016109d1565b600061049060016109c3565b90506040518060e001604052808281526020018573ffffffffffffffffffffffffffffffffffffffff1681526020018381526020013373ffffffffffffffffffffffffffffffffffffffff168152602001600073ffffffffffffffffffffffffffffffffffffffff16815260200184815260200160001515815250600560008381526020019081526020016000206000820151816000015560208201518160010160006101000a81548173ffffffffffffffffffffffffffffffffffffffff021916908373ffffffffffffffffffffffffffffffffffffffff1602179055506040820151816002015560608201518160030160006101000a81548173ffffffffffffffffffffffffffffffffffffffff021916908373ffffffffffffffffffffffffffffffffffffffff16021790555060808201518160040160006101000a81548173ffffffffffffffffffffffffffffffffffffffff021916908373ffffffffffffffffffffffffffffffffffffffff16021790555060a0820151816005015560c08201518160060160006101000a81548160ff0219169083151502179055509050508373ffffffffffffffffffffffffffffffffffffffff166323b872dd3330856040518463ffffffff1660e01b815260040161067193929190611061565b600060405180830381600087803b15801561068b57600080fd5b505af115801561069f573d6000803e3d6000fd5b505050508373ffffffffffffffffffffffffffffffffffffffff16817fcd9b0dfebab7db4dbe70606f69fadc8e987e7c80a65410f0bb5ae8bd72dabba7843360008860006040516106f49594939291906110a7565b60405180910390a3506001600081905550505050565b60026000541415610750576040517f08c379a000000000000000000000000000000000000000000000000000000000815260040161074790610f34565b60405180910390fd5b60026000819055506000600560008381526020019081526020016000206005015490506000600560008481526020019081526020016000206002015490508134146107d0576040517f08c379a00000000000000000000000000000000000000000000000000000000081526004016107c79061116c565b60405180910390fd5b6005600084815260200190815260200160002060030160009054906101000a900473ffffffffffffffffffffffffffffffffffffffff1673ffffffffffffffffffffffffffffffffffffffff166108fc349081150290604051600060405180830381858888f1935050505015801561084c573d6000803e3d6000fd5b508373ffffffffffffffffffffffffffffffffffffffff166323b872dd3033846040518463ffffffff1660e01b815260040161088a93929190611061565b600060405180830381600087803b1580156108a457600080fd5b505af11580156108b8573d6000803e3d6000fd5b50505050336005600085815260200190815260200160002060040160006101000a81548173ffffffffffffffffffffffffffffffffffffffff021916908373ffffffffffffffffffffffffffffffffffffffff16021790555060016005600085815260200190815260200160002060060160006101000a81548160ff02191690831515021790555061094a60026109d1565b600360009054906101000a900473ffffffffffffffffffffffffffffffffffffffff1673ffffffffffffffffffffffffffffffffffffffff166108fc6004549081150290604051600060405180830381858888f193505050501580156109b4573d6000803e3d6000fd5b50505060016000819055505050565b600081600001549050919050565b6001816000016000828254019250508190555050565b6040518060e0016040528060008152602001600073ffffffffffffffffffffffffffffffffffffffff16815260200160008152602001600073ffffffffffffffffffffffffffffffffffffffff168152602001600073ffffffffffffffffffffffffffffffffffffffff168152602001600081526020016000151581525090565b6000819050919050565b610a7b81610a68565b82525050565b6000602082019050610a966000830184610a72565b92915050565b600081519050919050565b600082825260208201905092915050565b6000819050602082019050919050565b610ad181610a68565b82525050565b600073ffffffffffffffffffffffffffffffffffffffff82169050919050565b6000610b0282610ad7565b9050919050565b610b1281610af7565b82525050565b6000610b2382610ad7565b9050919050565b610b3381610b18565b82525050565b60008115159050919050565b610b4e81610b39565b82525050565b60e082016000820151610b6a6000850182610ac8565b506020820151610b7d6020850182610b09565b506040820151610b906040850182610ac8565b506060820151610ba36060850182610b2a565b506080820151610bb66080850182610b2a565b5060a0820151610bc960a0850182610ac8565b5060c0820151610bdc60c0850182610b45565b50505050565b6000610bee8383610b54565b60e08301905092915050565b6000602082019050919050565b6000610c1282610a9c565b610c1c8185610aa7565b9350610c2783610ab8565b8060005b83811015610c58578151610c3f8882610be2565b9750610c4a83610bfa565b925050600181019050610c2b565b5085935050505092915050565b60006020820190508181036000830152610c7f8184610c07565b905092915050565b600080fd5b610c9581610af7565b8114610ca057600080fd5b50565b600081359050610cb281610c8c565b92915050565b610cc181610a68565b8114610ccc57600080fd5b50565b600081359050610cde81610cb8565b92915050565b600080600060608486031215610cfd57610cfc610c87565b5b6000610d0b86828701610ca3565b9350506020610d1c86828701610ccf565b9250506040610d2d86828701610ccf565b9150509250925092565b60008060408385031215610d4e57610d4d610c87565b5b6000610d5c85828601610ca3565b9250506020610d6d85828601610ccf565b9150509250929050565b7f4e487b7100000000000000000000000000000000000000000000000000000000600052601160045260246000fd5b6000610db182610a68565b9150610dbc83610a68565b925082821015610dcf57610dce610d77565b5b828203905092915050565b7f4e487b7100000000000000000000000000000000000000000000000000000000600052604160045260246000fd5b6000610e1482610a68565b9150610e1f83610a68565b9250827fffffffffffffffffffffffffffffffffffffffffffffffffffffffffffffffff03821115610e5457610e53610d77565b5b828201905092915050565b7f4e487b7100000000000000000000000000000000000000000000000000000000600052603260045260246000fd5b6000610e9982610a68565b91507fffffffffffffffffffffffffffffffffffffffffffffffffffffffffffffffff821415610ecc57610ecb610d77565b5b600182019050919050565b600082825260208201905092915050565b7f5265656e7472616e637947756172643a207265656e7472616e742063616c6c00600082015250565b6000610f1e601f83610ed7565b9150610f2982610ee8565b602082019050919050565b60006020820190508181036000830152610f4d81610f11565b9050919050565b7f70726963652073686f756c642062652061746c65617374206f6e652077656900600082015250565b6000610f8a601f83610ed7565b9150610f9582610f54565b602082019050919050565b60006020820190508181036000830152610fb981610f7d565b9050919050565b7f5072696365206d75737420626520657175616c20746f206c697374696e67707260008201527f6963650000000000000000000000000000000000000000000000000000000000602082015250565b600061101c602383610ed7565b915061102782610fc0565b604082019050919050565b6000602082019050818103600083015261104b8161100f565b9050919050565b61105b81610af7565b82525050565b60006060820190506110766000830186611052565b6110836020830185611052565b6110906040830184610a72565b949350505050565b6110a181610b39565b82525050565b600060a0820190506110bc6000830188610a72565b6110c96020830187611052565b6110d66040830186611052565b6110e36060830185610a72565b6110f06080830184611098565b9695505050505050565b7f506c65617365207375626d697420707269636520696e206f7264657220746f2060008201527f636f6e74696e75652e0000000000000000000000000000000000000000000000602082015250565b6000611156602983610ed7565b9150611161826110fa565b604082019050919050565b6000602082019050818103600083015261118581611149565b905091905056fea26469706673582212202cf9904e63db0516bcf20078d4cbc21c7d06504d56460fcbcf6e1db10c0d962264736f6c634300080c0033",
  "immutableReferences": {},
  "source": "// SPDX-License-Identifier: MIT\r\npragma solidity >=0.7.0 <0.9.0;\r\n\r\n//importing openzeppelin contracts\r\nimport \"@openzeppelin/contracts/token/ERC721/ERC721.sol\";\r\nimport \"@openzeppelin/contracts/security/ReentrancyGuard.sol\";\r\nimport \"@openzeppelin/contracts/utils/Counters.sol\";\r\n\r\ncontract KBMarket is ReentrancyGuard {\r\n    using Counters for Counters.Counter;\r\n\r\n    Counters.Counter private _tokenIds;\r\n    Counters.Counter private _tokenSold;\r\n\r\n    address payable owner;\r\n\r\n    uint listingPrice = 0.045 ether;\r\n\r\n    event MarketTokenMinted(\r\n        uint indexed ItemId,\r\n        address indexed nftContract,\r\n        uint  tokenId,\r\n        address owner,\r\n        address seller,\r\n        uint price,\r\n        bool sold\r\n    );\r\n\r\n    constructor() {\r\n        owner = payable(msg.sender);\r\n    }\r\n\r\n    struct MarketToken{\r\n        uint itemId;\r\n        address nftContract;\r\n        uint tokenId;\r\n        address payable seller;\r\n        address payable owner;\r\n        uint price;\r\n        bool sold;\r\n    }\r\n\r\n    //it will map MarketToken by tokenId\r\n    mapping(uint => MarketToken) private idToTokenItem;\r\n\r\n    //get Listing Price\r\n    function getListingPrice() public view returns(uint){\r\n        return listingPrice;\r\n    }\r\n\r\n    //Function that will put item on seller\r\n\r\n    function mintMarketItem(address nftContract, uint price, uint tokenId) public payable nonReentrant{\r\n        require(price >0 , \"price should be atleast one wei\");\r\n        require(msg.value == listingPrice, \"Price must be equal to listingprice\");\r\n\r\n        _tokenIds.increment();\r\n        uint newItemId = _tokenIds.current();\r\n\r\n        idToTokenItem[newItemId] = MarketToken(\r\n            newItemId,\r\n            nftContract,\r\n            tokenId,\r\n            payable(msg.sender),\r\n            payable(address(0)),\r\n            price,\r\n            false\r\n        );\r\n        //NFT Transaction\r\n        IERC721(nftContract).transferFrom(msg.sender, address(this), tokenId);\r\n\r\n        emit MarketTokenMinted( \r\n            newItemId,\r\n            nftContract,\r\n            tokenId,\r\n            msg.sender,\r\n            address(0),\r\n            price,\r\n            false            \r\n        );\r\n    }\r\n\r\n\r\n    function createMarketSale(address nftContract, uint itemId) public payable nonReentrant{\r\n        uint price = idToTokenItem[itemId].price;\r\n        uint tokenId = idToTokenItem[itemId].tokenId;\r\n        require(msg.value == price, \"Please submit price in order to continue.\");\r\n\r\n        //transfer the amout to sellers\r\n        idToTokenItem[itemId].seller.transfer(msg.value);\r\n\r\n        //transfer the token from contract to buyer\r\n        IERC721(nftContract).transferFrom(address(this), msg.sender, tokenId);\r\n\r\n        idToTokenItem[itemId].owner = payable(msg.sender);\r\n        idToTokenItem[itemId].sold = true;\r\n        _tokenSold.increment();\r\n        payable(owner).transfer(listingPrice);\r\n\r\n    }\r\n\r\n    //Fetching the MarketToken\r\n    function fetchMarketToken() public view returns(MarketToken[] memory){\r\n        uint itemCount = _tokenIds.current();\r\n        uint unsoldItemCount  = _tokenIds.current() - _tokenSold.current();\r\n        uint currentIndex = 0;\r\n\r\n        MarketToken[] memory item  = new MarketToken[](unsoldItemCount);\r\n        for(uint i =0; i<itemCount; i++){\r\n            if(idToTokenItem[i+1].owner == address(0)){\r\n                uint currentId = i+1;\r\n                MarketToken storage currentItem = idToTokenItem[currentId];\r\n                item[currentIndex] = currentItem;\r\n                currentIndex++;\r\n            }\r\n        }\r\n        return item;\r\n    }\r\n\r\n\r\n\r\n\r\n\r\n\r\n\r\n}",
  "sourcePath": "C:\\Users\\abc\\Desktop\\Blockchain\\task\\contracts\\KBMarket.sol",
  "compiler": {
    "name": "solc",
    "version": "0.8.12+commit.f00d7308.Emscripten.clang"
  },
  "schemaVersion": "3.4.5",
  "updatedAt": "2022-03-26T14:10:34.573Z",
  "networkType": "ethereum",
  "devdoc": {
    "kind": "dev",
    "methods": {},
    "version": 1
  },
  "userdoc": {
    "kind": "user",
    "methods": {},
    "version": 1
  }
}